:020000040800F2
:10000000900700204D020008FD120008230E000892
:10001000CD110008FD0200089D1600080000000038
:10002000000000000000000000000000391400087B
:10003000FF02000800000000A7130008C114000818
:1000400067020008670200086702000867020008EC
:1000500067020008670200086702000867020008DC
:1000600067020008670200086702000867020008CC
:1000700067020008670200086702000867020008BC
:1000800067020008670200086702000867020008AC
:10009000670200086702000867020008670200089C
:1000A000670200086702000867020008670200088C
:1000B000670200086702000867020008670200087C
:1000C000670200086702000867020008670200086C
:1000D000670200087116000867020008670200083E
:1000E000670200086702000867020008670200084C
:1000F000670200086702000867020008670200083C
:10010000670200086702000867020008670200082B
:10011000670200086702000867020008670200081B
:10012000670200086702000867020008670200080B
:1001300067020008670200086702000867020008FB
:1001400067020008670200086702000867020008EB
:1001500067020008670200086702000867020008DB
:1001600067020008670200086702000867020008CB
:10017000670200086702000867020008000000002C
:1001800067020008670200086702000867020008AB
:10019000670200086702000867020008670200089B
:1001A00067020008670200086702000800F002F812
:1001B00000F03CF80AA090E8000C82448344AAF1C5
:1001C0000107DA4501D100F031F8AFF2090EBAE8C3
:1001D0000F0013F0010F18BFFB1A43F0010318477B
:1001E000D4150000F4150000103A24BF78C878C177
:1001F000FAD8520724BF30C830C144BF04680C602D
:10020000704700000023002400250026103A28BF74
:1002100078C1FBD8520728BF30C148BF0B60704778
:100220001FB501F0B9FA1FBD10B510BD00F033F8CD
:100230001146FFF7F5FF01F065FA00F051F803B43D
:10024000FFF7F2FF03BC01F02AFA000009488047DB
:1002500009480047FEE7FEE7FEE7FEE7FEE7FEE7A8
:10026000FEE7FEE7FEE7FEE704480549054A064BC0
:1002700070470000C5140008AD010008900100207F
:1002800090070020900300209003002070477047E3
:10029000704770477047754600F02CF8AE46050071
:1002A0006946534620F00700854618B020B5FFF791
:1002B000DBFFBDE820404FF000064FF000074FF095
:1002C00000084FF0000B21F00701AC46ACE8C00974
:1002D000ACE8C009ACE8C009ACE8C0098D4670477D
:1002E00010B50446AFF300802046BDE81040FFF78C
:1002F000A6BF0000004870472C010020FEE77047B1
:100300002DE9F84FDFF8A091002209F1040A0AF163
:10031000040B4FF00F080BF1040E01260B689640FA
:100320003340B34271D14C68022C01D0122C11D150
:10033000D40800EB84073D6A5407E40E08FA04FC75
:1003400025EA0C05D1F810C00CFA04FC4CEA050CA7
:10035000C7F820C007685400032591F804C0A540E1
:100360000CF0030CAF430CFA04FC4CEA070CC0F889
:1003700000C04F68012F05D0022F03D0112F01D0EC
:10038000122F11D18768D1F80CC0AF430CFA04FCCE
:100390004CEA070CC0F808C04768B7430E79C6F3AB
:1003A000001696403E434660C668AE438D68A54041
:1003B0003543C5604C68E4006FD53C4C256845F476
:1003C00080452560246822F0030504F480440094ED
:1003D000374C2E19D6F808789407250F08FA05F43B
:1003E000A743344CA04201D100242EE0324CA0425D
:1003F00001D1012429E0314CA04201D1022424E0A2
:100400002F4CA04202D103241FE046E02D4CA04215
:1004100001D1042419E02C4CA04201D1052414E0A0
:100420002A4CA04201D106240FE0294CA04201D160
:1004300007240AE0274CA04201D1082405E0264CFD
:10044000A04201D1092400E00A24AC403C43C6F894
:100450000848D9F800404D464E689C43F60300D545
:100460001C432C60DAF8004055464E689C43B603A6
:1004700000D51C432C60DBF800405D464E689C4371
:10048000F60200D51C432C60DEF8004075464E682D
:100490009C43B60200D51C432C60521C102AFFF46A
:1004A0003CAFBDE8F88F0000003C014044380240FA
:1004B00000300140000002400004024000080240F9
:1004C000000C0240001002400014024000180240DC
:1004D000001C024000200240002402400069084045
:1004E00000D0012070470AB1816170470904FBE721
:1004F00001480068704700001400002002480168AD
:10050000491C016070470000140000200B4810B522
:10051000016841F400710160016841F4806101608B
:10052000016841F480710160052000F03FF80F2060
:1005300000F006F800F015F8002010BD003C024065
:1005400010B5044600F08CF94FF47A71B0FBF1F06D
:1005500000F074FB00222146501E00F007F8002036
:1005600010BD08B50020009008BD0000F0B40E4B8F
:100570001B68C3F30223C3F10704042C00D904242D
:100580001D1D072D01D2002300E0DB1E012606FA07
:1005900004F56D1E0D409D409E40761E164045EAB6
:1005A0000601F0BC00F0ABBE0CED00E0064A00F026
:1005B000070110684FF6FF03184040EA0120034985
:1005C00008431060704700000CED00E00000FA05E1
:1005D0002DE9F8431D48016841F080510160006831
:1005E000012700F080500090380490FAA0F0DFF866
:1005F0006080B0FA80F048F82070FFF779FF044679
:100600004FF47A75134E04E0FFF772FF001BA84207
:1006100013D87068C003F7D54FF4003090FAA0F0FB
:10062000B0FA80F048F82070FFF762FF044607E058
:10063000FFF75EFF001BA84202D90320BDE8F88344
:1006400070688003F4D50020F8E7000040380240CD
:1006500000000E42007000402DE9F05FDFF8F8A1C5
:1006600004460F46DAF80000DFF8F08100F00F02D0
:10067000C8B27A49814641F2883608F10808BA4280
:1006800061D202468AF80020DAF8000000F00F007C
:10069000B8427DD12078800707D5D8F80020A3681C
:1006A00022F0F0021A43C8F800202078C0072DD0AD
:1006B000606801281AD002281BD0032819D00968C5
:1006C0008907002964DAD8F80010474621F00301B1
:1006D0000143C8F80010FFF70BFF054660680128CA
:1006E0000FD0022818D003281CD027E009688903FE
:1006F000E7E709688901E4E7FFF7FAFE401BB0422B
:1007000058D83868C0F381000128F5D188E0FFF798
:10071000EFFE401BB0424DD83868C0F3810002287C
:10072000F5D17DE03868FFF7E3FE401BB042F9D910
:1007300040E0FFF7DDFE401BB0423BD8386810F0C8
:100740000C0FF6D16CE02078800707D5D8F8002090
:10075000A36822F0F0021A43C8F800202078C007EE
:100760004CD06068012828D0022829D0032827D03F
:1007700009688907002949DAD8F8002022F0030225
:100780000243C8F80020FFF7B3FE0546606800E0AA
:100790003CE001281DD0022829D0032838D0B346D8
:1007A0004646306810F00C0F28D0FFF7A1FE411B21
:1007B0005945F6D90320BDE8F09F09688903D9E7B8
:1007C00009688901D6E7FFF793FE411B594502D915
:1007D000F0E7B34646463068C0F381000128F2D105
:1007E0000CE0FFF785FE411B594502D9E2E7B3460D
:1007F00046463068C0F381000228F2D18AF80090A2
:10080000DAF8000000F00F00B84209D00120D2E76A
:1008100044462068FFF76CFE401BB042F9D9C9E797
:100820002078400707D5D8F80010E26821F4E0519D
:100830001143C8F800102078000708D5D8F8001038
:10084000226921F4604141EAC201C8F800100F207A
:10085000FFF776FE0020AEE7003C02400038024081
:1008600010B500F017F808490968F02292FAA2F2D0
:1008700001F0F001B2FA82F2D140044A515CC84062
:100880000349086010BD000008380240A2170008A4
:100890000000002030B51948006810F00C0118481D
:1008A00012D0184C04290ED008290DD1134A121F5A
:1008B0001168136801F03F015D0247F6C07304D56B
:1008C000B4FBF1F003E0204630BDB0FBF1F011685D
:1008D000194093FAA3F3B3FA83F3D940484311685C
:1008E0004FF4403292FAA2F201F44031B2FA82F2AD
:1008F000D140491C4900B0FBF1F030BD083802403E
:100900000024F40040787D012DE9F84F044600787A
:10091000DFF8FCA2BF4DC0074FF0000648D0DAF860
:1009200000105046C1F38101012908D00068C0F3CE
:10093000810002280AD1281D0068400206D52868D7
:10094000800335D56068002873D031E0DFF8C492A9
:1009500009F1020989F80060FFF7CAFD074641F274
:10096000883804E0FFF7C4FDC11B41457AD82868E8
:100970008003F7D4207989F80000606860B1FFF740
:10098000B7FD074604E0FFF7B3FDC11B4145EDD8B5
:1009900028688003F7D50BE0FFF7AAFD074604E0BF
:1009A000FFF7A6FDC11B4145E0D828688003F7D4B6
:1009B0002078DFF86492800744D5DAF800105046BA
:1009C00011F00C0F4FF0F80809D00068C0F3810057
:1009D00002280BD18E48001F0068400206D4286808
:1009E000800714D5E068012823D110E0E068D0B179
:1009F0000120C9F80000FFF77BFD074604E0FFF780
:100A000077FDC01B6428B1D828688007F7D528680F
:100A100098FAA8F22169B2FA82F220F0F800914027
:100A2000084328600EE0C9F80060FFF761FD074643
:100A300005E0EAE0FFF75CFDC01B642812D82868D7
:100A40008007F7D42078000725D5DFF8C4817348E4
:100A5000616908F16C0881B101210160FFF748FD6F
:100A6000074605E07EE0FFF743FDC01B642879D808
:100A7000D8F800008007F6D50DE00660FFF738FDD6
:100A8000074604E0FFF734FDC01B64286AD8D8F895
:100A900000008007F6D42078400753D55C483830F2
:100AA000016841F0805101600068DFF8748100F056
:100AB00080500090D8F8001041F48071C8F8001000
:100AC000FFF716FD074604E0FFF712FDC01B642880
:100AD00048D8D8F80000C005F6D5DFF834B10BF1DE
:100AE000680B8BF80060FFF703FD074641F288387A
:100AF00004E0FFF7FDFCC11B41457ED8DBF8000098
:100B00008007F6D4207A8BF80000A06868B1FFF760
:100B1000EFFC074604E0FFF7EBFCC11B41456CD836
:100B2000DBF800008007F6D50CE0FFF7E1FC074694
:100B300004E0FFF7DDFCC11B41455ED8DBF8000097
:100B40008007F6D4A069E8B3DAF80010C1F3810198
:100B500002295AD0022806D0C9F86060FFF7C8FC05
:100B600004464DE049E04F46C9F86060FFF7C0FC1D
:100B7000064604E0FFF7BCFC801B64283DD82868CB
:100B80008001F7D4D4E90701084347F6C07191FA10
:100B9000A1F1626AB1FA81F18A40A16A4FF0FF3394
:100BA00003EB51014FF4403393FAA3F3B3FA83F309
:100BB00099400A4310434FF0706292FAA2F2B2FADF
:100BC00082F200E01FE0E16A914008431049091FEA
:100BD000086001203866FFF78BFC044604E0FFF74D
:100BE00087FC001B642808D828688001F7D50AE034
:100BF000FFF77EFC001B642802D90320BDE8F88FB4
:100C000028688001F4D40020F8E70120F6E700000E
:100C1000083802400038024000004742800E474238
:100C2000007000404FF0E0210428086903D020F054
:100C300004000861704740F00400FAE710B5401E58
:100C4000B0F1807F01D3012010BD4FF0E02460613E
:100C50000F21601700F053FB0020A06107202061E6
:100C6000002010BD704790F83900704738B5016812
:100C700004460868CA68C0F3000002F4807238B104
:100C800032B1086848680090E06B40F00100E06312
:100C900008684A69C0F3400002F0010238B132B17D
:100CA000086848680090E06B40F00400E063086862
:100CB0004A69C0F3800002F0010238B132B108681D
:100CC00048680090E06B40F00200E06308684A6901
:100CD000C0F3C00002F0010238B132B108684868C0
:100CE0000090E06B40F00800E0630868C968C0F35A
:100CF000401001F0200118B111B1204600F032FC83
:100D000020680168C068C1F3C01100F0800019B10B
:100D100010B1204600F079FC21680868CA68C0F369
:100D2000801002F04002012568B162B1CA68204615
:100D300022F04002CA6094F8391032290CD080F8B1
:100D4000395000F06DF8E06B002804D084F8395079
:100D50002046FFF787FF38BD222180F83910F0E7E1
:100D600090F83930012B01D0122B2BD131B32AB39B
:100D700090F83830012B25D0012380F8383081627B
:100D80008285C2850022C26390F83910122917D0DB
:100D9000222180F839100168CB6843F48073CB605E
:100DA00001684B6943F001034B6180F8382000680B
:100DB000C16841F02001C1600020704701207047E8
:100DC0003221E6E70220704730B5006811498842B9
:100DD0000CD1114A5088010408D411464404097802
:100DE0004FF0000306D50A2901D0538030BD40F4EE
:100DF00000400DE00D2909D0C0F30D04074D401C43
:100E000080B229555080C728EFD830BD40F48040CB
:100E1000508030BD001001401C0000202400002044
:100E20007047FEE70E4810B5016886B041F08001BA
:100E300001600068012400F0800005903020CDE9B9
:100E400000040220CDE9024069460648FFF758FA3F
:100E50000548C0F89442C0F8904206B010BD0000AA
:100E600030380240001C0240008043422DE9F0412E
:100E700005461448016821F440610160016841F4AD
:100E800080610160104E0027C6F890723C464FF01A
:100E90000108E809C6F894026806050E022000F071
:100EA00017FCC6F89082022000F012FCC6F890727F
:100EB000022000F00DFC641CE4B2082CE9D3BDE86C
:100EC000F0810000001C02400080434270B50D48D4
:100ED000016821F440610160016841F480610160B2
:100EE000094C0120C4F89402C4F89002042004F5CF
:100EF000247400F0EDFB00256560042000F0E8FBA1
:100F0000256070BD001C0240008043420E4810B5B1
:100F1000016821F440610160016841F48061016071
:100F20000A4C0020C4F89002C4F89402042004F58E
:100F3000247400F0CDFB012020606060BDE810400B
:100F4000042000F0C5BB0000001C024000804342AA
:100F500070B512480024016821F440610160016805
:100F600001600F4D0126C5F89462304600F0B0FBD9
:100F7000C5F89062012000F0ABFB07E0641CE4B20E
:100F8000FA2C03D9FFF7C2FF012070BDD5F8140277
:100F90000028F3D1C5F8900270BD0000001C02408B
:100FA0000080434270B51B4886B00025016841F0BF
:100FB00001010160016801F001010591016841F042
:100FC00004010160016801F004010591016841F02C
:100FD000800101600068032400F080000590022079
:100FE0000126CDE90204CDE9006569460A48FFF70C
:100FF00087F9700303948DE8610069460748FFF79D
:101000007FF90C20009069460548FFF779F906B092
:1010100070BD00003038024000000240000802406D
:10102000001C02402DE9F0470126304C7703DFF821
:10103000C080DFF8C090304D01281DD02078A0B1CD
:1010400008212846FFF74AFAC0B104212846FFF7D5
:1010500045FA98B139464046FFF740FA70B1012190
:101060004846FFF73BFA012808D008212846FFF739
:1010700035FA012826D037E02670E1E70A2000F093
:1010800019FB0020207008212846FFF727FA80B1BD
:1010900004212846FFF722FA70B139464046FFF78F
:1010A0001DFA58B101214846FFF718FA012807D068
:1010B0001AE00120BDE8F0870220FBE70320F9E7F2
:1010C0000420F7E704212846FFF708FA01280BD18E
:1010D00039464046FFF702FA012805D1012148466A
:1010E000FFF7FCF900B926700020E3E7200000209C
:1010F0000008024000000240001C0240104810B5E9
:10110000016886B041F0020101600068012100F031
:10111000020005900320CDE90210CDE90001094C41
:1011200069462046FFF7ECF8012211462046FFF7FA
:10113000DAF9012202212046FFF7D5F906B010BDE9
:10114000303802400004024010B5064C0122402114
:101150002046FFF7C8F920460022BDE810401021C4
:10116000FFF7C1B9000C024010B5064C0022402127
:101170002046FFF7B8F920460122BDE810401021B3
:10118000FFF7B1B9000C024010B5064C0122D102A4
:101190002046FFF7A8F920460022BDE81040202194
:1011A000FFF7A1B9000C024010B5074C00224FF424
:1011B00000612046FFF797F920460122BDE8104064
:1011C0002021FFF790B90000000C0240FEE700006C
:1011D0002DE9F04F444C87B04FF0000B206840F0F1
:1011E000080020602068012600F0080005904FF4F8
:1011F0000760CDE90006DFF8F49003256946039502
:101200004846FFF77DF8206840F0400020602068E5
:10121000DFF8DCA000F0400005906803CDE900068F
:10122000694603955046FFF76BF8206840F00400CC
:1012300020602068022700F004000590DFF8B480E9
:10124000CDE90076694603954046FFF759F82068D6
:1012500040F0010020602068694600F00100059020
:10126000CDE90076244E03953046FFF749F8012278
:1012700040214846FFF737F9012210214846FFF781
:1012800032F90122D1024846FFF72DF9012220212F
:101290004846FFF728F9012251035046FFF723F98A
:1012A000012291035046FFF71EF901220221304628
:1012B000FFF719F9012202214046FFF714F92068CF
:1012C00040F0040020602068694600F004000590AA
:1012D0004FF47070CDE9000B03954046FFF710F80E
:1012E00007B0BDE8F08F000030380240000C02402B
:1012F0000018024000080240000002407047090741
:10130000090E002806DA00F00F0000F1E02080F856
:10131000141D704700F1E02080F8001470470000B1
:10132000144810B5026886B0002142F00202026043
:10133000006800F0020005904FF48050CDE90001F4
:10134000012002900320039069460B48FEF7D8FF66
:10135000FFF768FDFFF7BAFD4020FFF787FDFFF7B5
:10136000F7FD0446FFF7D2FDFF2000F007F806B0B6
:10137000204610BD303802400004024010B504463B
:10138000FFF7A4FD4020FFF771FDFFF7E1FD2046C8
:10139000FFF76CFDFFF7DCFDFFF7B8FDBDE810407F
:1013A0000A2000F087B9704710B5074C012251039D
:1013B0002046FFF798F82046BDE8104000224FF481
:1013C0008041FFF790B800000018024010B5074CAC
:1013D00000224FF400512046FFF785F820460122F5
:1013E000BDE810409103FFF77EB8000000180240EE
:1013F00010B5012202210548FFF775F80022BDE86B
:10140000104002210248FFF76EB8000000080240B9
:101410000000024010B5002202210548FFF763F8E2
:101420000122BDE8104002210248FFF75CB800002D
:1014300000080240000002407047000070B51E4CDA
:1014400092B00025266846F080562660246804F095
:1014500080541194194C266846F44046266024684E
:101460000DF1240C04F440441194012400940194DF
:10147000022406948CE80D006605CDE907616846F4
:10148000FFF742FA00B1FEE7FFF7A2F800B1FEE76E
:101490000CA90F2081E831004FF4A0500F904FF4B9
:1014A0008050109005210CA8FFF7D6F8002800D036
:1014B000FEE712B070BD00004038024000700040EE
:1014C000FFF71CB81048016841F4700101600F4833
:1014D000016841F0010101600C4A002108321160ED
:1014E00002680B4B1A400260031D0A4A1A60026828
:1014F00022F48022026005480C300160024958063F
:10150000803908607047000088ED00E00038024034
:10151000FFFFF6FE1030002410B5FFF715FEFFF7B1
:1015200033FEFFF741FFBDE81040FFF761BF10B584
:10153000FFF73AFFFFF75CFFBDE81040FFF734BE4E
:1015400010B5FFF701FEBDE81040FFF71DBE10B556
:10155000FFF70AFEFFF728FEFFF738FFBDE810404F
:10156000FFF758BF10B590F83910222903D032295F
:1015700001D0022010BD8168B1F5805F11D00169F2
:10158000002901681FD0496801F07F03816A4A1C65
:1015900082620B70C18D491E0904090CC18518D0E7
:1015A0002FE00269816A002A0268526805D0D2B22F
:1015B0000A80816A491C8162ECE7C2F308020A8052
:1015C000816A891CF7E74A68816A4B1C83620A704A
:1015D000E0E70168CA6822F02002CA6090F839107A
:1015E000322910D00168CA6822F48072CA6001688A
:1015F0004A6922F001024A61012180F83910FFF79F
:10160000E3FB002010BD1221F7E790F839101229F2
:1016100003D0322901D0022070478168B1F5805F84
:10162000016A0BD04A1C0262026809785160C18CC1
:10163000491E0904090CC1840ED017E0098802680C
:10164000C1F30801516001690029016A02D0491CF7
:101650000162ECE7891CFBE70168CA6822F080029E
:10166000CA600068C16841F04001C1600020704755
:1016700010B50848FFF7FAFA0648FFF7F4FA012810
:10168000FAD1012204490348FFF76AFB0028F8D188
:1016900010BD0000EC0000201C000020FEE7704799
:1016A00010B504460420FFF7BDFA0148046010BDE0
:1016B0001800002070B5054600244FF47A7603E048
:1016C000304600F005F8641CAC42F9D370BD000050
:1016D00070B54FF0E02500216C69094AAB691268CA
:1016E0005043AA699A42FCD002D2A3EB020302E063
:1016F000A4EB02063344194413468142F1D370BD72
:1017000018000020FEF702FF0823022219214FF4DF
:10171000B470FFF793FEB420FFF7C2FFFFF7EEFCB3
:10172000FFF756FDFFF73EFCFFF7FAFD194C4FF4AB
:10173000FA75002202212046FEF7D5FE012211464D
:101740002046FEF7D0FE2846FFF7B4FF0122022113
:101750002046FEF7C8FE002201212046FEF7C3FE08
:101760002846FFF7A7FF0020FFF75CFC012808D000
:10177000022809D003280AD00428DAD1FFF7E7FEAF
:10178000D7E7FFF7C9FED4E7FFF7D1FED1E7FFF7B0
:10179000D7FECEE7000402404FF04070E1EE100AA1
:1017A0007047000000000102030401020304060761
:1017B00008090000D41700080000002024000000E1
:1017C000E8010008F8170008240000206C0700005A
:1017D000040200080024F4000000000000000000E3
:1017E00001020304060708090000000000000000D1
:0817F0000000000001000000F0
:04000005080001AD41
:00000001FF
